{
  "abi": [
    {
      "type": "constructor",
      "inputs": [
        {
          "name": "_maxFunding",
          "type": "uint256",
          "internalType": "uint256"
        }
      ],
      "stateMutability": "nonpayable"
    },
    {
      "type": "receive",
      "stateMutability": "payable"
    },
    {
      "type": "function",
      "name": "getContractBalance",
      "inputs": [],
      "outputs": [
        {
          "name": "",
          "type": "uint256",
          "internalType": "uint256"
        }
      ],
      "stateMutability": "view"
    },
    {
      "type": "function",
      "name": "getFunderBalance",
      "inputs": [
        {
          "name": "_funder",
          "type": "address",
          "internalType": "address"
        }
      ],
      "outputs": [
        {
          "name": "",
          "type": "uint256",
          "internalType": "uint256"
        }
      ],
      "stateMutability": "view"
    },
    {
      "type": "function",
      "name": "maxFunding",
      "inputs": [],
      "outputs": [
        {
          "name": "",
          "type": "uint256",
          "internalType": "uint256"
        }
      ],
      "stateMutability": "view"
    },
    {
      "type": "function",
      "name": "owner",
      "inputs": [],
      "outputs": [
        {
          "name": "",
          "type": "address",
          "internalType": "address"
        }
      ],
      "stateMutability": "view"
    },
    {
      "type": "function",
      "name": "paybackFunders",
      "inputs": [],
      "outputs": [],
      "stateMutability": "nonpayable"
    },
    {
      "type": "function",
      "name": "setMaxFunding",
      "inputs": [
        {
          "name": "_maxFunding",
          "type": "uint256",
          "internalType": "uint256"
        }
      ],
      "outputs": [],
      "stateMutability": "nonpayable"
    },
    {
      "type": "function",
      "name": "withdraw",
      "inputs": [],
      "outputs": [],
      "stateMutability": "nonpayable"
    },
    {
      "type": "event",
      "name": "Funded",
      "inputs": [
        {
          "name": "user",
          "type": "address",
          "indexed": true,
          "internalType": "address"
        },
        {
          "name": "amount",
          "type": "uint256",
          "indexed": false,
          "internalType": "uint256"
        }
      ],
      "anonymous": false
    },
    {
      "type": "event",
      "name": "Payback",
      "inputs": [
        {
          "name": "funder",
          "type": "address",
          "indexed": true,
          "internalType": "address"
        },
        {
          "name": "amount",
          "type": "uint256",
          "indexed": false,
          "internalType": "uint256"
        }
      ],
      "anonymous": false
    },
    {
      "type": "event",
      "name": "Withdrawn",
      "inputs": [
        {
          "name": "owner",
          "type": "address",
          "indexed": true,
          "internalType": "address"
        },
        {
          "name": "amount",
          "type": "uint256",
          "indexed": false,
          "internalType": "uint256"
        }
      ],
      "anonymous": false
    }
  ],
  "bytecode": {
    "object": "0x6080604052348015600e575f80fd5b506040516110243803806110248339818101604052810190602e919060ab565b80600181905550335f806101000a81548173ffffffffffffffffffffffffffffffffffffffff021916908373ffffffffffffffffffffffffffffffffffffffff1602179055505060d1565b5f80fd5b5f819050919050565b608d81607d565b81146096575f80fd5b50565b5f8151905060a5816086565b92915050565b5f6020828403121560bd5760bc6079565b5b5f60c8848285016099565b91505092915050565b610f46806100de5f395ff3fe608060405260043610610073575f3560e01c80636f9fb98a1161004d5780636f9fb98a146102ac5780637115913c146102d65780638da5cb5b146102fe578063b8b3d85b1461032857610252565b80630291bbff146102565780633ccfd60b1461026c578063596b975a1461028257610252565b36610252575f34116100ba576040517f08c379a00000000000000000000000000000000000000000000000000000000081526004016100b1906109c9565b60405180910390fd5b60015434476100c99190610a1d565b111561010a576040517f08c379a000000000000000000000000000000000000000000000000000000000815260040161010190610a9a565b60405180910390fd5b5f60035f3373ffffffffffffffffffffffffffffffffffffffff1673ffffffffffffffffffffffffffffffffffffffff1681526020019081526020015f2054036101af57600233908060018154018082558091505060019003905f5260205f20015f9091909190916101000a81548173ffffffffffffffffffffffffffffffffffffffff021916908373ffffffffffffffffffffffffffffffffffffffff1602179055505b3460035f3373ffffffffffffffffffffffffffffffffffffffff1673ffffffffffffffffffffffffffffffffffffffff1681526020019081526020015f205f8282546101fb9190610a1d565b925050819055503373ffffffffffffffffffffffffffffffffffffffff167f5af8184bef8e4b45eb9f6ed7734d04da38ced226495548f46e0c8ff8d7d9a524346040516102489190610ac7565b60405180910390a2005b5f80fd5b348015610261575f80fd5b5061026a610364565b005b348015610277575f80fd5b506102806105d4565b005b34801561028d575f80fd5b50610296610820565b6040516102a39190610ac7565b60405180910390f35b3480156102b7575f80fd5b506102c0610826565b6040516102cd9190610ac7565b60405180910390f35b3480156102e1575f80fd5b506102fc60048036038101906102f79190610b0e565b61082d565b005b348015610309575f80fd5b50610312610906565b60405161031f9190610b78565b60405180910390f35b348015610333575f80fd5b5061034e60048036038101906103499190610bbb565b610929565b60405161035b9190610ac7565b60405180910390f35b5f8054906101000a900473ffffffffffffffffffffffffffffffffffffffff1673ffffffffffffffffffffffffffffffffffffffff163373ffffffffffffffffffffffffffffffffffffffff16146103f1576040517f08c379a00000000000000000000000000000000000000000000000000000000081526004016103e890610c56565b60405180910390fd5b5f5b6002805490508110156105d1575f6002828154811061041557610414610c74565b5b905f5260205f20015f9054906101000a900473ffffffffffffffffffffffffffffffffffffffff1690505f60035f8373ffffffffffffffffffffffffffffffffffffffff1673ffffffffffffffffffffffffffffffffffffffff1681526020019081526020015f205490505f8111156105c2575f60035f8473ffffffffffffffffffffffffffffffffffffffff1673ffffffffffffffffffffffffffffffffffffffff1681526020019081526020015f20819055505f8273ffffffffffffffffffffffffffffffffffffffff16826040516104ef90610cce565b5f6040518083038185875af1925050503d805f8114610529576040519150601f19603f3d011682016040523d82523d5f602084013e61052e565b606091505b5050905080610572576040517f08c379a000000000000000000000000000000000000000000000000000000000815260040161056990610d2c565b60405180910390fd5b8273ffffffffffffffffffffffffffffffffffffffff167f8c9cdf934f136ab5b80fe11dfd56363fa7544ecb56d4c440c0d8a14d04bfff4a836040516105b89190610ac7565b60405180910390a2505b505080806001019150506103f3565b50565b5f8054906101000a900473ffffffffffffffffffffffffffffffffffffffff1673ffffffffffffffffffffffffffffffffffffffff163373ffffffffffffffffffffffffffffffffffffffff1614610661576040517f08c379a000000000000000000000000000000000000000000000000000000000815260040161065890610c56565b60405180910390fd5b5f47116106a3576040517f08c379a000000000000000000000000000000000000000000000000000000000815260040161069a90610d94565b60405180910390fd5b6001544710156106e8576040517f08c379a00000000000000000000000000000000000000000000000000000000081526004016106df90610dfc565b60405180910390fd5b5f805f9054906101000a900473ffffffffffffffffffffffffffffffffffffffff1673ffffffffffffffffffffffffffffffffffffffff164760405161072d90610cce565b5f6040518083038185875af1925050503d805f8114610767576040519150601f19603f3d011682016040523d82523d5f602084013e61076c565b606091505b50509050806107b0576040517f08c379a00000000000000000000000000000000000000000000000000000000081526004016107a790610e64565b60405180910390fd5b5f8054906101000a900473ffffffffffffffffffffffffffffffffffffffff1673ffffffffffffffffffffffffffffffffffffffff167f7084f5476618d8e60b11ef0d7d3f06914655adb8793e28ff7f018d4c76d505d5476040516108159190610ac7565b60405180910390a250565b60015481565b5f47905090565b5f8054906101000a900473ffffffffffffffffffffffffffffffffffffffff1673ffffffffffffffffffffffffffffffffffffffff163373ffffffffffffffffffffffffffffffffffffffff16146108ba576040517f08c379a00000000000000000000000000000000000000000000000000000000081526004016108b190610c56565b60405180910390fd5b5f81116108fc576040517f08c379a00000000000000000000000000000000000000000000000000000000081526004016108f390610ef2565b60405180910390fd5b8060018190555050565b5f8054906101000a900473ffffffffffffffffffffffffffffffffffffffff1681565b5f60035f8373ffffffffffffffffffffffffffffffffffffffff1673ffffffffffffffffffffffffffffffffffffffff1681526020019081526020015f20549050919050565b5f82825260208201905092915050565b7f4d7573742073656e64206120706f73697469766520616d6f756e7400000000005f82015250565b5f6109b3601b8361096f565b91506109be8261097f565b602082019050919050565b5f6020820190508181035f8301526109e0816109a7565b9050919050565b5f819050919050565b7f4e487b71000000000000000000000000000000000000000000000000000000005f52601160045260245ffd5b5f610a27826109e7565b9150610a32836109e7565b9250828201905080821115610a4a57610a496109f0565b5b92915050565b7f46756e64696e67206c696d6974206578636565646564000000000000000000005f82015250565b5f610a8460168361096f565b9150610a8f82610a50565b602082019050919050565b5f6020820190508181035f830152610ab181610a78565b9050919050565b610ac1816109e7565b82525050565b5f602082019050610ada5f830184610ab8565b92915050565b5f80fd5b610aed816109e7565b8114610af7575f80fd5b50565b5f81359050610b0881610ae4565b92915050565b5f60208284031215610b2357610b22610ae0565b5b5f610b3084828501610afa565b91505092915050565b5f73ffffffffffffffffffffffffffffffffffffffff82169050919050565b5f610b6282610b39565b9050919050565b610b7281610b58565b82525050565b5f602082019050610b8b5f830184610b69565b92915050565b610b9a81610b58565b8114610ba4575f80fd5b50565b5f81359050610bb581610b91565b92915050565b5f60208284031215610bd057610bcf610ae0565b5b5f610bdd84828501610ba7565b91505092915050565b7f4f6e6c79206f776e65722063616e2063616c6c20746869732066756e6374696f5f8201527f6e00000000000000000000000000000000000000000000000000000000000000602082015250565b5f610c4060218361096f565b9150610c4b82610be6565b604082019050919050565b5f6020820190508181035f830152610c6d81610c34565b9050919050565b7f4e487b71000000000000000000000000000000000000000000000000000000005f52603260045260245ffd5b5f81905092915050565b50565b5f610cb95f83610ca1565b9150610cc482610cab565b5f82019050919050565b5f610cd882610cae565b9150819050919050565b7f5061796261636b206661696c65640000000000000000000000000000000000005f82015250565b5f610d16600e8361096f565b9150610d2182610ce2565b602082019050919050565b5f6020820190508181035f830152610d4381610d0a565b9050919050565b7f4e6f2066756e647320746f2077697468647261770000000000000000000000005f82015250565b5f610d7e60148361096f565b9150610d8982610d4a565b602082019050919050565b5f6020820190508181035f830152610dab81610d72565b9050919050565b7f46756e6472616973696e6720676f616c206e6f742072656163686564000000005f82015250565b5f610de6601c8361096f565b9150610df182610db2565b602082019050919050565b5f6020820190508181035f830152610e1381610dda565b9050919050565b7f5769746864726177616c206661696c65640000000000000000000000000000005f82015250565b5f610e4e60118361096f565b9150610e5982610e1a565b602082019050919050565b5f6020820190508181035f830152610e7b81610e42565b9050919050565b7f4d6178696d756d2066756e64696e67206d7573742062652067726561746572205f8201527f7468616e207a65726f0000000000000000000000000000000000000000000000602082015250565b5f610edc60298361096f565b9150610ee782610e82565b604082019050919050565b5f6020820190508181035f830152610f0981610ed0565b905091905056fea2646970667358221220b1e146b3fff6ef1ba347b1bed1d7c83d957b9af042f900f625e82aad253f657864736f6c634300081a0033",
    "linkReferences": {}
  },
  "methodIdentifiers": {
    "getContractBalance()": "6f9fb98a",
    "getFunderBalance(address)": "b8b3d85b",
    "maxFunding()": "596b975a",
    "owner()": "8da5cb5b",
    "paybackFunders()": "0291bbff",
    "setMaxFunding(uint256)": "7115913c",
    "withdraw()": "3ccfd60b"
  },
  "id": 0
}