{
  "abi": [
    {
      "type": "constructor",
      "inputs": [
        {
          "name": "_APY",
          "type": "uint8",
          "internalType": "uint8"
        }
      ],
      "stateMutability": "nonpayable"
    },
    {
      "type": "function",
      "name": "APY",
      "inputs": [],
      "outputs": [
        {
          "name": "",
          "type": "uint8",
          "internalType": "uint8"
        }
      ],
      "stateMutability": "view"
    },
    {
      "type": "function",
      "name": "getStakeBalance",
      "inputs": [],
      "outputs": [
        {
          "name": "",
          "type": "uint256",
          "internalType": "uint256"
        }
      ],
      "stateMutability": "view"
    },
    {
      "type": "function",
      "name": "owner",
      "inputs": [],
      "outputs": [
        {
          "name": "",
          "type": "address",
          "internalType": "address"
        }
      ],
      "stateMutability": "view"
    },
    {
      "type": "function",
      "name": "ownerWithdraw",
      "inputs": [],
      "outputs": [],
      "stateMutability": "nonpayable"
    },
    {
      "type": "function",
      "name": "slash",
      "inputs": [
        {
          "name": "user",
          "type": "address",
          "internalType": "address"
        },
        {
          "name": "amount",
          "type": "uint256",
          "internalType": "uint256"
        }
      ],
      "outputs": [],
      "stateMutability": "nonpayable"
    },
    {
      "type": "function",
      "name": "stake",
      "inputs": [],
      "outputs": [],
      "stateMutability": "payable"
    },
    {
      "type": "function",
      "name": "totalStaked",
      "inputs": [],
      "outputs": [
        {
          "name": "",
          "type": "uint256",
          "internalType": "uint256"
        }
      ],
      "stateMutability": "view"
    },
    {
      "type": "function",
      "name": "unstake",
      "inputs": [
        {
          "name": "amount",
          "type": "uint256",
          "internalType": "uint256"
        }
      ],
      "outputs": [],
      "stateMutability": "nonpayable"
    },
    {
      "type": "event",
      "name": "Slashed",
      "inputs": [
        {
          "name": "user",
          "type": "address",
          "indexed": true,
          "internalType": "address"
        },
        {
          "name": "amount",
          "type": "uint256",
          "indexed": false,
          "internalType": "uint256"
        }
      ],
      "anonymous": false
    },
    {
      "type": "event",
      "name": "Staked",
      "inputs": [
        {
          "name": "user",
          "type": "address",
          "indexed": true,
          "internalType": "address"
        },
        {
          "name": "amount",
          "type": "uint256",
          "indexed": false,
          "internalType": "uint256"
        }
      ],
      "anonymous": false
    },
    {
      "type": "event",
      "name": "Unstaked",
      "inputs": [
        {
          "name": "user",
          "type": "address",
          "indexed": true,
          "internalType": "address"
        },
        {
          "name": "amount",
          "type": "uint256",
          "indexed": false,
          "internalType": "uint256"
        }
      ],
      "anonymous": false
    }
  ],
  "bytecode": {
    "object": "0x608060405234801561000f575f80fd5b50604051610f35380380610f35833981810160405281019061003191906100ca565b8060025f6101000a81548160ff021916908360ff160217905550335f806101000a81548173ffffffffffffffffffffffffffffffffffffffff021916908373ffffffffffffffffffffffffffffffffffffffff160217905550506100f5565b5f80fd5b5f60ff82169050919050565b6100a981610094565b81146100b3575f80fd5b50565b5f815190506100c4816100a0565b92915050565b5f602082840312156100df576100de610090565b5b5f6100ec848285016100b6565b91505092915050565b610e33806101025f395ff3fe60806040526004361061007a575f3560e01c80634311de8f1161004d5780634311de8f14610102578063817b1cd2146101185780638da5cb5b14610142578063ef8bd3051461016c5761007a565b806302fb4d851461007e5780632e17de78146100a65780633a4b66f1146100ce578063427c7f38146100d8575b5f80fd5b348015610089575f80fd5b506100a4600480360381019061009f9190610908565b610196565b005b3480156100b1575f80fd5b506100cc60048036038101906100c79190610946565b6103a3565b005b6100d6610588565b005b3480156100e3575f80fd5b506100ec610685565b6040516100f99190610980565b60405180910390f35b34801561010d575f80fd5b506101166106c9565b005b348015610123575f80fd5b5061012c61083c565b6040516101399190610980565b60405180910390f35b34801561014d575f80fd5b50610156610842565b60405161016391906109a8565b60405180910390f35b348015610177575f80fd5b50610180610865565b60405161018d91906109dc565b60405180910390f35b5f8054906101000a900473ffffffffffffffffffffffffffffffffffffffff1673ffffffffffffffffffffffffffffffffffffffff163373ffffffffffffffffffffffffffffffffffffffff1614610223576040517f08c379a000000000000000000000000000000000000000000000000000000000815260040161021a90610a75565b60405180910390fd5b8060035f8473ffffffffffffffffffffffffffffffffffffffff1673ffffffffffffffffffffffffffffffffffffffff1681526020019081526020015f205410156102a3576040517f08c379a000000000000000000000000000000000000000000000000000000000815260040161029a90610add565b60405180910390fd5b804710156102e6576040517f08c379a00000000000000000000000000000000000000000000000000000000081526004016102dd90610b6b565b60405180910390fd5b8060035f8473ffffffffffffffffffffffffffffffffffffffff1673ffffffffffffffffffffffffffffffffffffffff1681526020019081526020015f205f8282546103329190610bb6565b925050819055508060015f82825461034a9190610bb6565b925050819055508173ffffffffffffffffffffffffffffffffffffffff167f4ed05e9673c26d2ed44f7ef6a7f2942df0ee3b5e1e17db4b99f9dcd261a339cd826040516103979190610980565b60405180910390a25050565b8060035f3373ffffffffffffffffffffffffffffffffffffffff1673ffffffffffffffffffffffffffffffffffffffff1681526020019081526020015f20541015610423576040517f08c379a000000000000000000000000000000000000000000000000000000000815260040161041a90610c33565b60405180910390fd5b8060035f3373ffffffffffffffffffffffffffffffffffffffff1673ffffffffffffffffffffffffffffffffffffffff1681526020019081526020015f205f82825461046f9190610bb6565b925050819055508060015f8282546104879190610bb6565b925050819055505f3373ffffffffffffffffffffffffffffffffffffffff16826040516104b390610c7e565b5f6040518083038185875af1925050503d805f81146104ed576040519150601f19603f3d011682016040523d82523d5f602084013e6104f2565b606091505b5050905080610536576040517f08c379a000000000000000000000000000000000000000000000000000000000815260040161052d90610cdc565b60405180910390fd5b3373ffffffffffffffffffffffffffffffffffffffff167f0f5bb82176feb1b5e747e28471aa92156a04d9f3ab9f45f28e2d704232b93f758360405161057c9190610980565b60405180910390a25050565b5f34116105ca576040517f08c379a00000000000000000000000000000000000000000000000000000000081526004016105c190610d44565b60405180910390fd5b3460035f3373ffffffffffffffffffffffffffffffffffffffff1673ffffffffffffffffffffffffffffffffffffffff1681526020019081526020015f205f8282546106169190610d62565b925050819055503460015f82825461062e9190610d62565b925050819055503373ffffffffffffffffffffffffffffffffffffffff167f9e71bc8eea02a63969f509818f2dafb9254532904319f9dbda79b67bd34a5f3d3460405161067b9190610980565b60405180910390a2565b5f60035f3373ffffffffffffffffffffffffffffffffffffffff1673ffffffffffffffffffffffffffffffffffffffff1681526020019081526020015f2054905090565b5f8054906101000a900473ffffffffffffffffffffffffffffffffffffffff1673ffffffffffffffffffffffffffffffffffffffff163373ffffffffffffffffffffffffffffffffffffffff1614610756576040517f08c379a000000000000000000000000000000000000000000000000000000000815260040161074d90610a75565b60405180910390fd5b5f600154476107659190610bb6565b90505f811115610839575f805f9054906101000a900473ffffffffffffffffffffffffffffffffffffffff1673ffffffffffffffffffffffffffffffffffffffff16826040516107b490610c7e565b5f6040518083038185875af1925050503d805f81146107ee576040519150601f19603f3d011682016040523d82523d5f602084013e6107f3565b606091505b5050905080610837576040517f08c379a000000000000000000000000000000000000000000000000000000000815260040161082e90610ddf565b60405180910390fd5b505b50565b60015481565b5f8054906101000a900473ffffffffffffffffffffffffffffffffffffffff1681565b60025f9054906101000a900460ff1681565b5f80fd5b5f73ffffffffffffffffffffffffffffffffffffffff82169050919050565b5f6108a48261087b565b9050919050565b6108b48161089a565b81146108be575f80fd5b50565b5f813590506108cf816108ab565b92915050565b5f819050919050565b6108e7816108d5565b81146108f1575f80fd5b50565b5f81359050610902816108de565b92915050565b5f806040838503121561091e5761091d610877565b5b5f61092b858286016108c1565b925050602061093c858286016108f4565b9150509250929050565b5f6020828403121561095b5761095a610877565b5b5f610968848285016108f4565b91505092915050565b61097a816108d5565b82525050565b5f6020820190506109935f830184610971565b92915050565b6109a28161089a565b82525050565b5f6020820190506109bb5f830184610999565b92915050565b5f60ff82169050919050565b6109d6816109c1565b82525050565b5f6020820190506109ef5f8301846109cd565b92915050565b5f82825260208201905092915050565b7f4f6e6c79206f776e65722063616e2063616c6c20746869732066756e6374696f5f8201527f6e00000000000000000000000000000000000000000000000000000000000000602082015250565b5f610a5f6021836109f5565b9150610a6a82610a05565b604082019050919050565b5f6020820190508181035f830152610a8c81610a53565b9050919050565b7f496e73756666696369656e742062616c616e636520746f20736c6173680000005f82015250565b5f610ac7601d836109f5565b9150610ad282610a93565b602082019050919050565b5f6020820190508181035f830152610af481610abb565b9050919050565b7f436f6e747261637420646f6573206e6f74206861766520656e6f7567682062615f8201527f6c616e636520746f20736c617368000000000000000000000000000000000000602082015250565b5f610b55602e836109f5565b9150610b6082610afb565b604082019050919050565b5f6020820190508181035f830152610b8281610b49565b9050919050565b7f4e487b71000000000000000000000000000000000000000000000000000000005f52601160045260245ffd5b5f610bc0826108d5565b9150610bcb836108d5565b9250828203905081811115610be357610be2610b89565b5b92915050565b7f496e73756666696369656e742062616c616e636520746f20756e7374616b65005f82015250565b5f610c1d601f836109f5565b9150610c2882610be9565b602082019050919050565b5f6020820190508181035f830152610c4a81610c11565b9050919050565b5f81905092915050565b50565b5f610c695f83610c51565b9150610c7482610c5b565b5f82019050919050565b5f610c8882610c5e565b9150819050919050565b7f4950207472616e73666572206661696c656400000000000000000000000000005f82015250565b5f610cc66012836109f5565b9150610cd182610c92565b602082019050919050565b5f6020820190508181035f830152610cf381610cba565b9050919050565b7f4d757374207374616b65206120706f73697469766520616d6f756e74000000005f82015250565b5f610d2e601c836109f5565b9150610d3982610cfa565b602082019050919050565b5f6020820190508181035f830152610d5b81610d22565b9050919050565b5f610d6c826108d5565b9150610d77836108d5565b9250828201905080821115610d8f57610d8e610b89565b5b92915050565b7f4f776e6572207769746864726177616c206661696c65640000000000000000005f82015250565b5f610dc96017836109f5565b9150610dd482610d95565b602082019050919050565b5f6020820190508181035f830152610df681610dbd565b905091905056fea26469706673582212208030126b3cfcb1c0e5fd040cdf9c751774c926d2bfb7259182be9d4417e879b964736f6c634300081a0033",
    "linkReferences": {}
  },
  "methodIdentifiers": {
    "APY()": "ef8bd305",
    "getStakeBalance()": "427c7f38",
    "owner()": "8da5cb5b",
    "ownerWithdraw()": "4311de8f",
    "slash(address,uint256)": "02fb4d85",
    "stake()": "3a4b66f1",
    "totalStaked()": "817b1cd2",
    "unstake(uint256)": "2e17de78"
  },
  "id": 0
}