{
  "abi": [
    {
      "type": "constructor",
      "inputs": [
        {
          "name": "_APY",
          "type": "uint8",
          "internalType": "uint8"
        },
        {
          "name": "_title",
          "type": "string",
          "internalType": "string"
        },
        {
          "name": "_maxStake",
          "type": "uint256",
          "internalType": "uint256"
        }
      ],
      "stateMutability": "nonpayable"
    },
    {
      "type": "receive",
      "stateMutability": "payable"
    },
    {
      "type": "function",
      "name": "APY",
      "inputs": [],
      "outputs": [
        {
          "name": "",
          "type": "uint8",
          "internalType": "uint8"
        }
      ],
      "stateMutability": "view"
    },
    {
      "type": "function",
      "name": "getStakeBalance",
      "inputs": [],
      "outputs": [
        {
          "name": "",
          "type": "uint256",
          "internalType": "uint256"
        }
      ],
      "stateMutability": "view"
    },
    {
      "type": "function",
      "name": "maxStake",
      "inputs": [],
      "outputs": [
        {
          "name": "",
          "type": "uint256",
          "internalType": "uint256"
        }
      ],
      "stateMutability": "view"
    },
    {
      "type": "function",
      "name": "owner",
      "inputs": [],
      "outputs": [
        {
          "name": "",
          "type": "address",
          "internalType": "address"
        }
      ],
      "stateMutability": "view"
    },
    {
      "type": "function",
      "name": "ownerWithdraw",
      "inputs": [],
      "outputs": [],
      "stateMutability": "nonpayable"
    },
    {
      "type": "function",
      "name": "slash",
      "inputs": [
        {
          "name": "user",
          "type": "address",
          "internalType": "address"
        },
        {
          "name": "amount",
          "type": "uint256",
          "internalType": "uint256"
        }
      ],
      "outputs": [],
      "stateMutability": "nonpayable"
    },
    {
      "type": "function",
      "name": "stake",
      "inputs": [],
      "outputs": [],
      "stateMutability": "payable"
    },
    {
      "type": "function",
      "name": "title",
      "inputs": [],
      "outputs": [
        {
          "name": "",
          "type": "string",
          "internalType": "string"
        }
      ],
      "stateMutability": "view"
    },
    {
      "type": "function",
      "name": "totalStaked",
      "inputs": [],
      "outputs": [
        {
          "name": "",
          "type": "uint256",
          "internalType": "uint256"
        }
      ],
      "stateMutability": "view"
    },
    {
      "type": "function",
      "name": "unstake",
      "inputs": [
        {
          "name": "amount",
          "type": "uint256",
          "internalType": "uint256"
        }
      ],
      "outputs": [],
      "stateMutability": "nonpayable"
    },
    {
      "type": "event",
      "name": "Slashed",
      "inputs": [
        {
          "name": "user",
          "type": "address",
          "indexed": true,
          "internalType": "address"
        },
        {
          "name": "amount",
          "type": "uint256",
          "indexed": false,
          "internalType": "uint256"
        }
      ],
      "anonymous": false
    },
    {
      "type": "event",
      "name": "Staked",
      "inputs": [
        {
          "name": "user",
          "type": "address",
          "indexed": true,
          "internalType": "address"
        },
        {
          "name": "amount",
          "type": "uint256",
          "indexed": false,
          "internalType": "uint256"
        }
      ],
      "anonymous": false
    },
    {
      "type": "event",
      "name": "Unstaked",
      "inputs": [
        {
          "name": "user",
          "type": "address",
          "indexed": true,
          "internalType": "address"
        },
        {
          "name": "amount",
          "type": "uint256",
          "indexed": false,
          "internalType": "uint256"
        }
      ],
      "anonymous": false
    }
  ],
  "bytecode": {
    "object": "0x608060405234801561000f575f80fd5b506040516115c23803806115c28339818101604052810190610031919061025f565b8260035f6101000a81548160ff021916908360ff160217905550335f806101000a81548173ffffffffffffffffffffffffffffffffffffffff021916908373ffffffffffffffffffffffffffffffffffffffff160217905550816005908161009991906104cf565b508060028190555050505061059e565b5f604051905090565b5f80fd5b5f80fd5b5f60ff82169050919050565b6100cf816100ba565b81146100d9575f80fd5b50565b5f815190506100ea816100c6565b92915050565b5f80fd5b5f80fd5b5f601f19601f8301169050919050565b7f4e487b71000000000000000000000000000000000000000000000000000000005f52604160045260245ffd5b61013e826100f8565b810181811067ffffffffffffffff8211171561015d5761015c610108565b5b80604052505050565b5f61016f6100a9565b905061017b8282610135565b919050565b5f67ffffffffffffffff82111561019a57610199610108565b5b6101a3826100f8565b9050602081019050919050565b8281835e5f83830152505050565b5f6101d06101cb84610180565b610166565b9050828152602081018484840111156101ec576101eb6100f4565b5b6101f78482856101b0565b509392505050565b5f82601f830112610213576102126100f0565b5b81516102238482602086016101be565b91505092915050565b5f819050919050565b61023e8161022c565b8114610248575f80fd5b50565b5f8151905061025981610235565b92915050565b5f805f60608486031215610276576102756100b2565b5b5f610283868287016100dc565b935050602084015167ffffffffffffffff8111156102a4576102a36100b6565b5b6102b0868287016101ff565b92505060406102c18682870161024b565b9150509250925092565b5f81519050919050565b7f4e487b71000000000000000000000000000000000000000000000000000000005f52602260045260245ffd5b5f600282049050600182168061031957607f821691505b60208210810361032c5761032b6102d5565b5b50919050565b5f819050815f5260205f209050919050565b5f6020601f8301049050919050565b5f82821b905092915050565b5f6008830261038e7fffffffffffffffffffffffffffffffffffffffffffffffffffffffffffffffff82610353565b6103988683610353565b95508019841693508086168417925050509392505050565b5f819050919050565b5f6103d36103ce6103c98461022c565b6103b0565b61022c565b9050919050565b5f819050919050565b6103ec836103b9565b6104006103f8826103da565b84845461035f565b825550505050565b5f90565b610414610408565b61041f8184846103e3565b505050565b5b81811015610442576104375f8261040c565b600181019050610425565b5050565b601f8211156104875761045881610332565b61046184610344565b81016020851015610470578190505b61048461047c85610344565b830182610424565b50505b505050565b5f82821c905092915050565b5f6104a75f198460080261048c565b1980831691505092915050565b5f6104bf8383610498565b9150826002028217905092915050565b6104d8826102cb565b67ffffffffffffffff8111156104f1576104f0610108565b5b6104fb8254610302565b610506828285610446565b5f60209050601f831160018114610537575f8415610525578287015190505b61052f85826104b4565b865550610596565b601f19841661054586610332565b5f5b8281101561056c57848901518255600182019150602085019450602081019050610547565b868310156105895784890151610585601f891682610498565b8355505b6001600288020188555050505b505050505050565b611017806105ab5f395ff3fe608060405260043610610094575f3560e01c80634a79d50c116100585780634a79d50c14610139578063817b1cd2146101635780638da5cb5b1461018d578063ea1b28e0146101b7578063ef8bd305146101e15761009b565b806302fb4d851461009f5780632e17de78146100c75780633a4b66f1146100ef578063427c7f38146100f95780634311de8f146101235761009b565b3661009b57005b5f80fd5b3480156100aa575f80fd5b506100c560048036038101906100c09190610a0f565b61020b565b005b3480156100d2575f80fd5b506100ed60048036038101906100e89190610a4d565b610418565b005b6100f76105fd565b005b348015610104575f80fd5b5061010d6106fa565b60405161011a9190610a87565b60405180910390f35b34801561012e575f80fd5b5061013761073e565b005b348015610144575f80fd5b5061014d6108b1565b60405161015a9190610b10565b60405180910390f35b34801561016e575f80fd5b5061017761093d565b6040516101849190610a87565b60405180910390f35b348015610198575f80fd5b506101a1610943565b6040516101ae9190610b3f565b60405180910390f35b3480156101c2575f80fd5b506101cb610966565b6040516101d89190610a87565b60405180910390f35b3480156101ec575f80fd5b506101f561096c565b6040516102029190610b73565b60405180910390f35b5f8054906101000a900473ffffffffffffffffffffffffffffffffffffffff1673ffffffffffffffffffffffffffffffffffffffff163373ffffffffffffffffffffffffffffffffffffffff1614610298576040517f08c379a000000000000000000000000000000000000000000000000000000000815260040161028f90610bfc565b60405180910390fd5b8060045f8473ffffffffffffffffffffffffffffffffffffffff1673ffffffffffffffffffffffffffffffffffffffff1681526020019081526020015f20541015610318576040517f08c379a000000000000000000000000000000000000000000000000000000000815260040161030f90610c64565b60405180910390fd5b8047101561035b576040517f08c379a000000000000000000000000000000000000000000000000000000000815260040161035290610cf2565b60405180910390fd5b8060045f8473ffffffffffffffffffffffffffffffffffffffff1673ffffffffffffffffffffffffffffffffffffffff1681526020019081526020015f205f8282546103a79190610d3d565b925050819055508060015f8282546103bf9190610d3d565b925050819055508173ffffffffffffffffffffffffffffffffffffffff167f4ed05e9673c26d2ed44f7ef6a7f2942df0ee3b5e1e17db4b99f9dcd261a339cd8260405161040c9190610a87565b60405180910390a25050565b8060045f3373ffffffffffffffffffffffffffffffffffffffff1673ffffffffffffffffffffffffffffffffffffffff1681526020019081526020015f20541015610498576040517f08c379a000000000000000000000000000000000000000000000000000000000815260040161048f90610dba565b60405180910390fd5b8060045f3373ffffffffffffffffffffffffffffffffffffffff1673ffffffffffffffffffffffffffffffffffffffff1681526020019081526020015f205f8282546104e49190610d3d565b925050819055508060015f8282546104fc9190610d3d565b925050819055505f3373ffffffffffffffffffffffffffffffffffffffff168260405161052890610e05565b5f6040518083038185875af1925050503d805f8114610562576040519150601f19603f3d011682016040523d82523d5f602084013e610567565b606091505b50509050806105ab576040517f08c379a00000000000000000000000000000000000000000000000000000000081526004016105a290610e63565b60405180910390fd5b3373ffffffffffffffffffffffffffffffffffffffff167f0f5bb82176feb1b5e747e28471aa92156a04d9f3ab9f45f28e2d704232b93f75836040516105f19190610a87565b60405180910390a25050565b5f341161063f576040517f08c379a000000000000000000000000000000000000000000000000000000000815260040161063690610ecb565b60405180910390fd5b3460045f3373ffffffffffffffffffffffffffffffffffffffff1673ffffffffffffffffffffffffffffffffffffffff1681526020019081526020015f205f82825461068b9190610ee9565b925050819055503460015f8282546106a39190610ee9565b925050819055503373ffffffffffffffffffffffffffffffffffffffff167f9e71bc8eea02a63969f509818f2dafb9254532904319f9dbda79b67bd34a5f3d346040516106f09190610a87565b60405180910390a2565b5f60045f3373ffffffffffffffffffffffffffffffffffffffff1673ffffffffffffffffffffffffffffffffffffffff1681526020019081526020015f2054905090565b5f8054906101000a900473ffffffffffffffffffffffffffffffffffffffff1673ffffffffffffffffffffffffffffffffffffffff163373ffffffffffffffffffffffffffffffffffffffff16146107cb576040517f08c379a00000000000000000000000000000000000000000000000000000000081526004016107c290610bfc565b60405180910390fd5b5f600154476107da9190610d3d565b90505f8111156108ae575f805f9054906101000a900473ffffffffffffffffffffffffffffffffffffffff1673ffffffffffffffffffffffffffffffffffffffff168260405161082990610e05565b5f6040518083038185875af1925050503d805f8114610863576040519150601f19603f3d011682016040523d82523d5f602084013e610868565b606091505b50509050806108ac576040517f08c379a00000000000000000000000000000000000000000000000000000000081526004016108a390610f66565b60405180910390fd5b505b50565b600580546108be90610fb1565b80601f01602080910402602001604051908101604052809291908181526020018280546108ea90610fb1565b80156109355780601f1061090c57610100808354040283529160200191610935565b820191905f5260205f20905b81548152906001019060200180831161091857829003601f168201915b505050505081565b60015481565b5f8054906101000a900473ffffffffffffffffffffffffffffffffffffffff1681565b60025481565b60035f9054906101000a900460ff1681565b5f80fd5b5f73ffffffffffffffffffffffffffffffffffffffff82169050919050565b5f6109ab82610982565b9050919050565b6109bb816109a1565b81146109c5575f80fd5b50565b5f813590506109d6816109b2565b92915050565b5f819050919050565b6109ee816109dc565b81146109f8575f80fd5b50565b5f81359050610a09816109e5565b92915050565b5f8060408385031215610a2557610a2461097e565b5b5f610a32858286016109c8565b9250506020610a43858286016109fb565b9150509250929050565b5f60208284031215610a6257610a6161097e565b5b5f610a6f848285016109fb565b91505092915050565b610a81816109dc565b82525050565b5f602082019050610a9a5f830184610a78565b92915050565b5f81519050919050565b5f82825260208201905092915050565b8281835e5f83830152505050565b5f601f19601f8301169050919050565b5f610ae282610aa0565b610aec8185610aaa565b9350610afc818560208601610aba565b610b0581610ac8565b840191505092915050565b5f6020820190508181035f830152610b288184610ad8565b905092915050565b610b39816109a1565b82525050565b5f602082019050610b525f830184610b30565b92915050565b5f60ff82169050919050565b610b6d81610b58565b82525050565b5f602082019050610b865f830184610b64565b92915050565b7f4f6e6c79206f776e65722063616e2063616c6c20746869732066756e6374696f5f8201527f6e00000000000000000000000000000000000000000000000000000000000000602082015250565b5f610be6602183610aaa565b9150610bf182610b8c565b604082019050919050565b5f6020820190508181035f830152610c1381610bda565b9050919050565b7f496e73756666696369656e742062616c616e636520746f20736c6173680000005f82015250565b5f610c4e601d83610aaa565b9150610c5982610c1a565b602082019050919050565b5f6020820190508181035f830152610c7b81610c42565b9050919050565b7f436f6e747261637420646f6573206e6f74206861766520656e6f7567682062615f8201527f6c616e636520746f20736c617368000000000000000000000000000000000000602082015250565b5f610cdc602e83610aaa565b9150610ce782610c82565b604082019050919050565b5f6020820190508181035f830152610d0981610cd0565b9050919050565b7f4e487b71000000000000000000000000000000000000000000000000000000005f52601160045260245ffd5b5f610d47826109dc565b9150610d52836109dc565b9250828203905081811115610d6a57610d69610d10565b5b92915050565b7f496e73756666696369656e742062616c616e636520746f20756e7374616b65005f82015250565b5f610da4601f83610aaa565b9150610daf82610d70565b602082019050919050565b5f6020820190508181035f830152610dd181610d98565b9050919050565b5f81905092915050565b50565b5f610df05f83610dd8565b9150610dfb82610de2565b5f82019050919050565b5f610e0f82610de5565b9150819050919050565b7f4950207472616e73666572206661696c656400000000000000000000000000005f82015250565b5f610e4d601283610aaa565b9150610e5882610e19565b602082019050919050565b5f6020820190508181035f830152610e7a81610e41565b9050919050565b7f4d757374207374616b65206120706f73697469766520616d6f756e74000000005f82015250565b5f610eb5601c83610aaa565b9150610ec082610e81565b602082019050919050565b5f6020820190508181035f830152610ee281610ea9565b9050919050565b5f610ef3826109dc565b9150610efe836109dc565b9250828201905080821115610f1657610f15610d10565b5b92915050565b7f4f776e6572207769746864726177616c206661696c65640000000000000000005f82015250565b5f610f50601783610aaa565b9150610f5b82610f1c565b602082019050919050565b5f6020820190508181035f830152610f7d81610f44565b9050919050565b7f4e487b71000000000000000000000000000000000000000000000000000000005f52602260045260245ffd5b5f6002820490506001821680610fc857607f821691505b602082108103610fdb57610fda610f84565b5b5091905056fea264697066735822122096923e3b249dc7cd8b66d1402245dde761a7d792b78b166b21a45a6311029efe64736f6c634300081a0033",
    "linkReferences": {}
  },
  "methodIdentifiers": {
    "APY()": "ef8bd305",
    "getStakeBalance()": "427c7f38",
    "maxStake()": "ea1b28e0",
    "owner()": "8da5cb5b",
    "ownerWithdraw()": "4311de8f",
    "slash(address,uint256)": "02fb4d85",
    "stake()": "3a4b66f1",
    "title()": "4a79d50c",
    "totalStaked()": "817b1cd2",
    "unstake(uint256)": "2e17de78"
  },
  "id": 0
}