{
  "abi": [
    {
      "type": "constructor",
      "inputs": [
        {
          "name": "_APY",
          "type": "uint8",
          "internalType": "uint8"
        },
        {
          "name": "_identifier",
          "type": "string",
          "internalType": "string"
        }
      ],
      "stateMutability": "nonpayable"
    },
    {
      "type": "function",
      "name": "APY",
      "inputs": [],
      "outputs": [
        {
          "name": "",
          "type": "uint8",
          "internalType": "uint8"
        }
      ],
      "stateMutability": "view"
    },
    {
      "type": "function",
      "name": "getStakeBalance",
      "inputs": [],
      "outputs": [
        {
          "name": "",
          "type": "uint256",
          "internalType": "uint256"
        }
      ],
      "stateMutability": "view"
    },
    {
      "type": "function",
      "name": "identifier",
      "inputs": [],
      "outputs": [
        {
          "name": "",
          "type": "string",
          "internalType": "string"
        }
      ],
      "stateMutability": "view"
    },
    {
      "type": "function",
      "name": "owner",
      "inputs": [],
      "outputs": [
        {
          "name": "",
          "type": "address",
          "internalType": "address"
        }
      ],
      "stateMutability": "view"
    },
    {
      "type": "function",
      "name": "ownerWithdraw",
      "inputs": [],
      "outputs": [],
      "stateMutability": "nonpayable"
    },
    {
      "type": "function",
      "name": "slash",
      "inputs": [
        {
          "name": "user",
          "type": "address",
          "internalType": "address"
        },
        {
          "name": "amount",
          "type": "uint256",
          "internalType": "uint256"
        }
      ],
      "outputs": [],
      "stateMutability": "nonpayable"
    },
    {
      "type": "function",
      "name": "stake",
      "inputs": [],
      "outputs": [],
      "stateMutability": "payable"
    },
    {
      "type": "function",
      "name": "totalStaked",
      "inputs": [],
      "outputs": [
        {
          "name": "",
          "type": "uint256",
          "internalType": "uint256"
        }
      ],
      "stateMutability": "view"
    },
    {
      "type": "function",
      "name": "unstake",
      "inputs": [
        {
          "name": "amount",
          "type": "uint256",
          "internalType": "uint256"
        }
      ],
      "outputs": [],
      "stateMutability": "nonpayable"
    },
    {
      "type": "event",
      "name": "Slashed",
      "inputs": [
        {
          "name": "user",
          "type": "address",
          "indexed": true,
          "internalType": "address"
        },
        {
          "name": "amount",
          "type": "uint256",
          "indexed": false,
          "internalType": "uint256"
        }
      ],
      "anonymous": false
    },
    {
      "type": "event",
      "name": "Staked",
      "inputs": [
        {
          "name": "user",
          "type": "address",
          "indexed": true,
          "internalType": "address"
        },
        {
          "name": "amount",
          "type": "uint256",
          "indexed": false,
          "internalType": "uint256"
        }
      ],
      "anonymous": false
    },
    {
      "type": "event",
      "name": "Unstaked",
      "inputs": [
        {
          "name": "user",
          "type": "address",
          "indexed": true,
          "internalType": "address"
        },
        {
          "name": "amount",
          "type": "uint256",
          "indexed": false,
          "internalType": "uint256"
        }
      ],
      "anonymous": false
    }
  ],
  "bytecode": {
    "object": "0x608060405234801561000f575f80fd5b5060405161153838038061153883398181016040528101906100319190610224565b8160025f6101000a81548160ff021916908360ff160217905550335f806101000a81548173ffffffffffffffffffffffffffffffffffffffff021916908373ffffffffffffffffffffffffffffffffffffffff1602179055508060049081610099919061048b565b50505061055a565b5f604051905090565b5f80fd5b5f80fd5b5f60ff82169050919050565b6100c7816100b2565b81146100d1575f80fd5b50565b5f815190506100e2816100be565b92915050565b5f80fd5b5f80fd5b5f601f19601f8301169050919050565b7f4e487b71000000000000000000000000000000000000000000000000000000005f52604160045260245ffd5b610136826100f0565b810181811067ffffffffffffffff8211171561015557610154610100565b5b80604052505050565b5f6101676100a1565b9050610173828261012d565b919050565b5f67ffffffffffffffff82111561019257610191610100565b5b61019b826100f0565b9050602081019050919050565b8281835e5f83830152505050565b5f6101c86101c384610178565b61015e565b9050828152602081018484840111156101e4576101e36100ec565b5b6101ef8482856101a8565b509392505050565b5f82601f83011261020b5761020a6100e8565b5b815161021b8482602086016101b6565b91505092915050565b5f806040838503121561023a576102396100aa565b5b5f610247858286016100d4565b925050602083015167ffffffffffffffff811115610268576102676100ae565b5b610274858286016101f7565b9150509250929050565b5f81519050919050565b7f4e487b71000000000000000000000000000000000000000000000000000000005f52602260045260245ffd5b5f60028204905060018216806102cc57607f821691505b6020821081036102df576102de610288565b5b50919050565b5f819050815f5260205f209050919050565b5f6020601f8301049050919050565b5f82821b905092915050565b5f600883026103417fffffffffffffffffffffffffffffffffffffffffffffffffffffffffffffffff82610306565b61034b8683610306565b95508019841693508086168417925050509392505050565b5f819050919050565b5f819050919050565b5f61038f61038a61038584610363565b61036c565b610363565b9050919050565b5f819050919050565b6103a883610375565b6103bc6103b482610396565b848454610312565b825550505050565b5f90565b6103d06103c4565b6103db81848461039f565b505050565b5b818110156103fe576103f35f826103c8565b6001810190506103e1565b5050565b601f82111561044357610414816102e5565b61041d846102f7565b8101602085101561042c578190505b610440610438856102f7565b8301826103e0565b50505b505050565b5f82821c905092915050565b5f6104635f1984600802610448565b1980831691505092915050565b5f61047b8383610454565b9150826002028217905092915050565b6104948261027e565b67ffffffffffffffff8111156104ad576104ac610100565b5b6104b782546102b5565b6104c2828285610402565b5f60209050601f8311600181146104f3575f84156104e1578287015190505b6104eb8582610470565b865550610552565b601f198416610501866102e5565b5f5b8281101561052857848901518255600182019150602085019450602081019050610503565b868310156105455784890151610541601f891682610454565b8355505b6001600288020188555050505b505050505050565b610fd1806105675f395ff3fe608060405260043610610085575f3560e01c80634311de8f116100585780634311de8f1461010d5780637998a1c414610123578063817b1cd21461014d5780638da5cb5b14610177578063ef8bd305146101a157610085565b806302fb4d85146100895780632e17de78146100b15780633a4b66f1146100d9578063427c7f38146100e3575b5f80fd5b348015610094575f80fd5b506100af60048036038101906100aa91906109c9565b6101cb565b005b3480156100bc575f80fd5b506100d760048036038101906100d29190610a07565b6103d8565b005b6100e16105bd565b005b3480156100ee575f80fd5b506100f76106ba565b6040516101049190610a41565b60405180910390f35b348015610118575f80fd5b506101216106fe565b005b34801561012e575f80fd5b50610137610871565b6040516101449190610aca565b60405180910390f35b348015610158575f80fd5b506101616108fd565b60405161016e9190610a41565b60405180910390f35b348015610182575f80fd5b5061018b610903565b6040516101989190610af9565b60405180910390f35b3480156101ac575f80fd5b506101b5610926565b6040516101c29190610b2d565b60405180910390f35b5f8054906101000a900473ffffffffffffffffffffffffffffffffffffffff1673ffffffffffffffffffffffffffffffffffffffff163373ffffffffffffffffffffffffffffffffffffffff1614610258576040517f08c379a000000000000000000000000000000000000000000000000000000000815260040161024f90610bb6565b60405180910390fd5b8060035f8473ffffffffffffffffffffffffffffffffffffffff1673ffffffffffffffffffffffffffffffffffffffff1681526020019081526020015f205410156102d8576040517f08c379a00000000000000000000000000000000000000000000000000000000081526004016102cf90610c1e565b60405180910390fd5b8047101561031b576040517f08c379a000000000000000000000000000000000000000000000000000000000815260040161031290610cac565b60405180910390fd5b8060035f8473ffffffffffffffffffffffffffffffffffffffff1673ffffffffffffffffffffffffffffffffffffffff1681526020019081526020015f205f8282546103679190610cf7565b925050819055508060015f82825461037f9190610cf7565b925050819055508173ffffffffffffffffffffffffffffffffffffffff167f4ed05e9673c26d2ed44f7ef6a7f2942df0ee3b5e1e17db4b99f9dcd261a339cd826040516103cc9190610a41565b60405180910390a25050565b8060035f3373ffffffffffffffffffffffffffffffffffffffff1673ffffffffffffffffffffffffffffffffffffffff1681526020019081526020015f20541015610458576040517f08c379a000000000000000000000000000000000000000000000000000000000815260040161044f90610d74565b60405180910390fd5b8060035f3373ffffffffffffffffffffffffffffffffffffffff1673ffffffffffffffffffffffffffffffffffffffff1681526020019081526020015f205f8282546104a49190610cf7565b925050819055508060015f8282546104bc9190610cf7565b925050819055505f3373ffffffffffffffffffffffffffffffffffffffff16826040516104e890610dbf565b5f6040518083038185875af1925050503d805f8114610522576040519150601f19603f3d011682016040523d82523d5f602084013e610527565b606091505b505090508061056b576040517f08c379a000000000000000000000000000000000000000000000000000000000815260040161056290610e1d565b60405180910390fd5b3373ffffffffffffffffffffffffffffffffffffffff167f0f5bb82176feb1b5e747e28471aa92156a04d9f3ab9f45f28e2d704232b93f75836040516105b19190610a41565b60405180910390a25050565b5f34116105ff576040517f08c379a00000000000000000000000000000000000000000000000000000000081526004016105f690610e85565b60405180910390fd5b3460035f3373ffffffffffffffffffffffffffffffffffffffff1673ffffffffffffffffffffffffffffffffffffffff1681526020019081526020015f205f82825461064b9190610ea3565b925050819055503460015f8282546106639190610ea3565b925050819055503373ffffffffffffffffffffffffffffffffffffffff167f9e71bc8eea02a63969f509818f2dafb9254532904319f9dbda79b67bd34a5f3d346040516106b09190610a41565b60405180910390a2565b5f60035f3373ffffffffffffffffffffffffffffffffffffffff1673ffffffffffffffffffffffffffffffffffffffff1681526020019081526020015f2054905090565b5f8054906101000a900473ffffffffffffffffffffffffffffffffffffffff1673ffffffffffffffffffffffffffffffffffffffff163373ffffffffffffffffffffffffffffffffffffffff161461078b576040517f08c379a000000000000000000000000000000000000000000000000000000000815260040161078290610bb6565b60405180910390fd5b5f6001544761079a9190610cf7565b90505f81111561086e575f805f9054906101000a900473ffffffffffffffffffffffffffffffffffffffff1673ffffffffffffffffffffffffffffffffffffffff16826040516107e990610dbf565b5f6040518083038185875af1925050503d805f8114610823576040519150601f19603f3d011682016040523d82523d5f602084013e610828565b606091505b505090508061086c576040517f08c379a000000000000000000000000000000000000000000000000000000000815260040161086390610f20565b60405180910390fd5b505b50565b6004805461087e90610f6b565b80601f01602080910402602001604051908101604052809291908181526020018280546108aa90610f6b565b80156108f55780601f106108cc576101008083540402835291602001916108f5565b820191905f5260205f20905b8154815290600101906020018083116108d857829003601f168201915b505050505081565b60015481565b5f8054906101000a900473ffffffffffffffffffffffffffffffffffffffff1681565b60025f9054906101000a900460ff1681565b5f80fd5b5f73ffffffffffffffffffffffffffffffffffffffff82169050919050565b5f6109658261093c565b9050919050565b6109758161095b565b811461097f575f80fd5b50565b5f813590506109908161096c565b92915050565b5f819050919050565b6109a881610996565b81146109b2575f80fd5b50565b5f813590506109c38161099f565b92915050565b5f80604083850312156109df576109de610938565b5b5f6109ec85828601610982565b92505060206109fd858286016109b5565b9150509250929050565b5f60208284031215610a1c57610a1b610938565b5b5f610a29848285016109b5565b91505092915050565b610a3b81610996565b82525050565b5f602082019050610a545f830184610a32565b92915050565b5f81519050919050565b5f82825260208201905092915050565b8281835e5f83830152505050565b5f601f19601f8301169050919050565b5f610a9c82610a5a565b610aa68185610a64565b9350610ab6818560208601610a74565b610abf81610a82565b840191505092915050565b5f6020820190508181035f830152610ae28184610a92565b905092915050565b610af38161095b565b82525050565b5f602082019050610b0c5f830184610aea565b92915050565b5f60ff82169050919050565b610b2781610b12565b82525050565b5f602082019050610b405f830184610b1e565b92915050565b7f4f6e6c79206f776e65722063616e2063616c6c20746869732066756e6374696f5f8201527f6e00000000000000000000000000000000000000000000000000000000000000602082015250565b5f610ba0602183610a64565b9150610bab82610b46565b604082019050919050565b5f6020820190508181035f830152610bcd81610b94565b9050919050565b7f496e73756666696369656e742062616c616e636520746f20736c6173680000005f82015250565b5f610c08601d83610a64565b9150610c1382610bd4565b602082019050919050565b5f6020820190508181035f830152610c3581610bfc565b9050919050565b7f436f6e747261637420646f6573206e6f74206861766520656e6f7567682062615f8201527f6c616e636520746f20736c617368000000000000000000000000000000000000602082015250565b5f610c96602e83610a64565b9150610ca182610c3c565b604082019050919050565b5f6020820190508181035f830152610cc381610c8a565b9050919050565b7f4e487b71000000000000000000000000000000000000000000000000000000005f52601160045260245ffd5b5f610d0182610996565b9150610d0c83610996565b9250828203905081811115610d2457610d23610cca565b5b92915050565b7f496e73756666696369656e742062616c616e636520746f20756e7374616b65005f82015250565b5f610d5e601f83610a64565b9150610d6982610d2a565b602082019050919050565b5f6020820190508181035f830152610d8b81610d52565b9050919050565b5f81905092915050565b50565b5f610daa5f83610d92565b9150610db582610d9c565b5f82019050919050565b5f610dc982610d9f565b9150819050919050565b7f4950207472616e73666572206661696c656400000000000000000000000000005f82015250565b5f610e07601283610a64565b9150610e1282610dd3565b602082019050919050565b5f6020820190508181035f830152610e3481610dfb565b9050919050565b7f4d757374207374616b65206120706f73697469766520616d6f756e74000000005f82015250565b5f610e6f601c83610a64565b9150610e7a82610e3b565b602082019050919050565b5f6020820190508181035f830152610e9c81610e63565b9050919050565b5f610ead82610996565b9150610eb883610996565b9250828201905080821115610ed057610ecf610cca565b5b92915050565b7f4f776e6572207769746864726177616c206661696c65640000000000000000005f82015250565b5f610f0a601783610a64565b9150610f1582610ed6565b602082019050919050565b5f6020820190508181035f830152610f3781610efe565b9050919050565b7f4e487b71000000000000000000000000000000000000000000000000000000005f52602260045260245ffd5b5f6002820490506001821680610f8257607f821691505b602082108103610f9557610f94610f3e565b5b5091905056fea264697066735822122019220c7bcd213d2db5cf9955dc1d30415409e1fe78a77b10921697e5f7079cb964736f6c634300081a0033",
    "linkReferences": {}
  },
  "methodIdentifiers": {
    "APY()": "ef8bd305",
    "getStakeBalance()": "427c7f38",
    "identifier()": "7998a1c4",
    "owner()": "8da5cb5b",
    "ownerWithdraw()": "4311de8f",
    "slash(address,uint256)": "02fb4d85",
    "stake()": "3a4b66f1",
    "totalStaked()": "817b1cd2",
    "unstake(uint256)": "2e17de78"
  },
  "id": 1
}